:100000000C9435000C945D000C945D000C945D0024
:100010000C945D000C945D000C945D000C945D00EC
:100020000C945D000C945D000C945D000C945D00DC
:100030000C945D000C945D000C945D000C945D00CC
:100040000C94B0080C945D000C945D000C945D0061
:100050000C945D000C945D000C945D000C945D00AC
:100060000C945D000C945D00DC0711241FBECFEFE3
:10007000D8E0DEBFCDBF11E0A0E0B1E0E2EAF4E1FC
:1000800002C005900D92A831B107D9F721E0A8E18F
:10009000B1E001C01D92AF38B207E1F710E0CAE647
:1000A000D0E004C02297FE010E943C0AC836D10766
:1000B000C9F70E949F090C944F0A0C94000080E934
:1000C00091E00895239A0895FC01DB013C91208181
:1000D000230F08F42FEF208311963C911197218173
:1000E000230F08F42FEF218312963C912281230FD6
:1000F00008F42FEF228308955F926F927F928F9280
:100100009F92AF92BF92CF92DF92EF92FF920F93A6
:100110001F93CF93DF9300D000D000D0CDB7DEB7D0
:100120006B01942E9C0197FF02C0215F3F4F790124
:1001300064E0F594E7946A95E1F7782E729470EF95
:1001400077227094672C609400E010E088248A94F1
:10015000C016D1060CF451C00115110531F00C1573
:100160001D0529F055245A9403C0572C01C0562C64
:100170009C828D825E82BE016F5F7F4FCE010496AE
:100180000E94EF075701AA0CBB1CF501E25CFE4F71
:1001900020813181C901880F991F820F931FBE01F1
:1001A0006F5F7F4F845B9E4F0E9464009C828D82B4
:1001B0005E82BE016F5F7F4FCE0104960E94EF0703
:1001C000F501EE5CFE4F20813181C901880F991F36
:1001D000820F931FBE016F5F7F4F845B9E4F0E9413
:1001E00064008FEFE81AF80A86E0E816F10411F4CB
:1001F000E12CF12C0F5F1F4FABCF26960FB6F89472
:10020000DEBF0FBECDBFDF91CF911F910F91FF9049
:10021000EF90DF90CF90BF90AF909F908F907F90A6
:100220006F905F90089580914A0190914B012091C9
:10023000080130910901820F931F8036910514F057
:100240008056910990934B0180934A0144E250E01B
:1002500060E08CE491E00E94A508809102019091F9
:10026000030143969093030180930201609106017C
:1002700070910701492F80914A0190914B010E9492
:100280007C0060917F018FE791E00E94A70640917A
:10029000040150910501662757FD6095762F8FE781
:1002A00091E00C9428079C0121503109EEE3F1E024
:1002B000A2E3B1E0AC014C30510514F04C505109AF
:1002C00037FF02C0245F3F4F419351932D933D93DD
:1002D0004F5F5F4F2150310961E0EC34F60759F769
:1002E00090933F0180933E010895CF93DF9300D018
:1002F0001F92CDB7DEB768EB7BE080E090E00E9414
:10030000290980912A01811145C010921C01109287
:100310001B018FEF80931F018093200180932101A7
:1003200080932201809323018093240181E08093B4
:100330002501109227011092260110921E011092A1
:100340001D0180917D0190917E01892B31F489E11D
:1003500091E090937E0180937D01E0917B01F0918B
:100360007C01309721F089E191E09583848389E1D4
:1003700091E090937C0180937B011092290110926F
:1003800028018EE091E090931A018093190181E099
:1003900080932A0120E030E04CE050E06CE471E012
:1003A00089E191E00E94A10780E680937F01198294
:1003B0001A821B82AE014F5F5F4F6CE070E08CE4ED
:1003C00091E00E94F00560917F018FE791E00E942B
:1003D000A70668EE73E080E090E00E942909809112
:1003E0000001909101010E9453010F900F900F9016
:1003F000DF91CF9108958F929F92AF92BF92CF924B
:10040000DF92EF92FF920F931F93CF93DF93EC0154
:10041000E881F98195B1986085B1877F85B9388584
:100420002D81D32ED21ADD82AD84AA81BB812B858A
:100430009C848A84EE80FC8079851F810990D88114
:10044000C02D0981002331F0402F0D2D400F08F4FD
:100450004FEF01C040E0042F029F012D1124C0E0A6
:100460004C2F5C2F6C2F002CEA01CC2E4C2D5D2FD5
:1004700095B900C000C000C000C000C007FF85B92A
:1004800062814427889400C000C000C000C000C042
:1004900000C0002C85B961116E0D00C000C0002C99
:1004A00000C000C095B900C000C000C000C000C0BE
:1004B00006FF85B908F46FEF889400C000C000C043
:1004C00000C000C000C000C085B990FC460F00C04D
:1004D00000C0002C00C000C095B900C000C000C022
:1004E00000C000C005FF85B94795889491FC460F70
:1004F00000C000C000C000C000C000C0002C85B912
:100500004795889400C000C0002C00C000C095B979
:1005100000C000C000C000C000C004FF85B992FC4C
:10052000460F4795889400C000C000C000C000C0BE
:1005300000C0002C85B993FC460F00C000C0002C01
:1005400000C000C095B900C000C000C000C000C01D
:1005500003FF85B94795889494FC460F00C000C0FE
:1005600000C000C000C000C0002C85B94795889429
:1005700000C000C0002C00C000C095B900C000C081
:1005800000C000C000C002FF85B995FC460F47952A
:10059000889400C000C000C000C000C000C0002C93
:1005A00085B996FC460F00C000C0002C00C000C0FA
:1005B00095B900C000C000C000C000C001FF85B9EF
:1005C0004795889497FC460F00C000C000C000C04B
:1005D00000C000C0002C85B94795889400C000C0B9
:1005E000002C00C000C095B900C000C000C000C011
:1005F00000C000FF85B9E194E70E00C000C000C054
:1006000000C000C000C000C0002C85B9042F00C08D
:1006100000C000C000C000C095B900C000C000C04C
:1006200000C000C007FF85B960814427889400C0DE
:1006300000C000C000C000C000C0002C85B961111E
:100640006F0D00C000C0002C00C000C095B900C0F4
:1006500000C000C000C000C006FF85B908F46FEFFD
:10066000889400C000C000C000C000C000C000C02E
:1006700085B980FC460F00C000C0002C00C000C03F
:1006800095B900C000C000C000C000C005FF85B91A
:100690004795889481FC460F00C000C000C000C090
:1006A00000C000C0002C85B94795889400C000C0E8
:1006B000002C00C000C095B900C000C000C000C040
:1006C00000C004FF85B982FC460F4795889400C09E
:1006D00000C000C000C000C000C0002C85B983FC71
:1006E000460F00C000C0002C00C000C095B900C07B
:1006F00000C000C000C000C003FF85B947958894C2
:1007000084FC460F00C000C000C000C000C000C094
:10071000002C85B94795889400C000C0002C00C00B
:1007200000C095B900C000C000C000C000C002FFFA
:1007300085B985FC460F4795889400C000C000C06D
:1007400000C000C000C0002C85B986FC460F00C068
:1007500000C0002C00C000C095B900C000C000C09F
:1007600000C000C001FF85B94795889487FC460FFB
:1007700000C000C000C000C000C000C0002C85B98F
:100780004795889400C000C0002C00C000C095B9F7
:1007900000C000C000C000C000C000FF85B9EA0D65
:1007A000F11D8894042F00C000C000C000C000C02C
:1007B00000C0002C85B9F194F10E00C000C0002CDF
:1007C00000C000C095B900C000C000C000C000C09B
:1007D00007FF85B961814427889400C000C000C02C
:1007E00000C000C000C0002C85B961116D0D00C0B3
:1007F00000C0002C00C000C095B900C000C000C0FF
:1008000000C000C006FF85B908F46FEF889400C0EF
:1008100000C000C000C000C000C000C085B920FDFD
:10082000460F00C000C0002C00C000C095B900C039
:1008300000C000C000C000C005FF85B9479588947E
:1008400021FD460F00C000C000C000C000C000C0B5
:10085000002C85B94795889400C000C0002C00C0CA
:1008600000C095B900C000C000C000C000C004FFB7
:1008700085B922FD460F4795889400C000C000C08E
:1008800000C000C000C0002C85B923FD460F00C089
:1008900000C0002C00C000C095B900C000C000C05E
:1008A00000C000C003FF85B94795889424FD460F1A
:1008B00000C000C000C000C000C000C0002C85B94E
:1008C0004795889400C000C0002C00C000C095B9B6
:1008D00000C000C000C000C000C002FF85B925FDF7
:1008E000460F4795889400C000C000C000C000C0FB
:1008F00000C0002C85B926FD460F00C000C0002CAA
:1009000000C000C095B900C000C000C000C000C059
:1009100001FF85B94795889427FD460F00C000C0A8
:1009200000C000C000C000C0002C85B94795889465
:1009300000C000C0002C00C000C095B900C000C0BD
:1009400000C000C000C000FF85B9D194D30E042FB1
:1009500000C000C000C000C000C000C000C085B919
:1009600000C000C0002C119709F082CDDF91CF911B
:100970001F910F91FF90EF90DF90CF90BF90AF90BD
:100980009F908F900895FF920F931F93CF93DF93C3
:10099000EC01809118018F5F982F97709093180148
:1009A00080FD02C080E001C080E891FD8064947009
:1009B00009F08062E0E1FE2EF80E20E030E000E079
:1009C00011E0FE01E20FF31F6285662331F070E053
:1009D000C8010E94D3096F5F01C060E067834F2D9B
:1009E000469F412D11244483662311F06150678393
:1009F0002F5F3F4F2330310521F7DF91CF911F91BA
:100A00000F91FF900895AF92BF92CF92DF92EF9235
:100A1000FF920F93CF93DF93CDB7DEB72E970FB62C
:100A2000F894DEBF0FBECDBF6C015A01F901DC01A5
:100A30001C968C917A8369835C834B8390819B871E
:100A400091819C8792819D87813029F4CE01019606
:100A50000E94C30406C01A86198618861F821E8249
:100A60001D8289819A818E0D911D9A83898300232D
:100A700019F083E08E0D01C080E08E870E94060988
:100A8000F60127853089621B730B6A307105B0F35C
:100A9000F894CE0101960E94FB0120EF33E0D501CE
:100AA0000E94280A24E096958795779567952A9560
:100AB000D1F720E030E04AE9A49E212DB49E200D1C
:100AC000311D1124620F731F811D911D693EF3E0DA
:100AD0007F0781059105A8F1DC01CB01885E934079
:100AE000A109B109F2E0B695A79597958795FA9572
:100AF000D1F740E050E027E0829F412D929F400DCA
:100B0000511D11242091700130E0280F391F240F4E
:100B1000351F8091870190918801A0918901B09142
:100B20008A01432F5527840F951FA11DB11D809366
:100B3000870190938801A0938901B0938A01209343
:100B4000700178940E940609D60150967C936E93AA
:100B50001F972E960FB6F894DEBF0FBECDBFDF9164
:100B6000CF910F91FF90EF90DF90CF90BF90AF901B
:100B70000895EF92FF920F93E12CF12C00E00E9478
:100B800003050F91FF90EF900895EF92FF920F935E
:100B9000E12CF12C01E00E9403050F91FF90EF90F2
:100BA0000895EF92FF920F93CF93DF9300D01F929F
:100BB000CDB7DEB7AB0119821A821B82E12CF12C72
:100BC00000E09E012F5F3F4FB9010E9403050F9087
:100BD0000F900F90DF91CF910F91FF90EF900895BC
:100BE000FA0120E030E00396261737076CF44081C5
:100BF000DC0113974C93418111964C9342811196DD
:100C00004C932F5F3F4FEFCF08958F929F92AF92FB
:100C1000BF92EF92FF920F931F93CF93DF93EC015C
:100C2000188219821A824423B9F1E0E0F0E08B01C6
:100C30000A5F1F4F7B0189E0E80EF11C842E912C86
:100C4000A12CB12CD801AE0FBF1F2C91D701AE0F34
:100C5000BF1F6C912223E1F06623D1F030E040E029
:100C600050E02F5F3F4F4F4F5F4F70E080E090E0CC
:100C70006F5F7F4F8F4F9F4F0E94AF099B01AC0169
:100C8000C501B4010E94AF09DE01AE0FBF1F8C93F6
:100C90003196E330F105B1F6CE01DF91CF911F918E
:100CA0000F91FF90EF90BF90AF909F908F9008951D
:100CB000CF92DF92EF92FF92CF93DF93EC0180917E
:100CC0007501909176019C012F5F3F4F3093760123
:100CD00020937501861797079CF10E94FA089B01E3
:100CE000AC01E0917501F091760188EE93E0E89F08
:100CF000B001E99F700DF89F700D1124882777FDD2
:100D00008095982FC0907101D0907201E09073018E
:100D1000F09074012C193D094E095F090E94E70902
:100D20003A83298310927601109275010E94FA0885
:100D300060937101709372018093730190937401B9
:100D4000DF91CF91FF90EF90DF90CF900895AF9219
:100D5000BF92CF92DF92EF92FF920F931F93CF93A8
:100D6000DF9300D01F92CDB7DEB78C01B62EF8010D
:100D700083819481A581B681892B8A2B8B2BD1F01D
:100D80000E940609C0907701D0907801E090790127
:100D9000F0907A016C197D098E099F09D80113968C
:100DA000CD90DD90ED90FC9016976C157D058E052D
:100DB0009F05E8F20E94060960937701709378011D
:100DC0008093790190937A01E0907D01F0907E010B
:100DD000E114F10451F1F701A484D80111968D9129
:100DE0009C9112978436910508F41486D701ED91F1
:100DF000FC91C280D3804B2DB701CE0101960E9499
:100E00000506F70145855685628173819E012F5F36
:100E10003F4FC701F6010995D7011C96AC921C976C
:100E20001496ED90FC901597D3CF69E170E0C8015E
:100E30000E9458060F900F900F90DF91CF911F9155
:100E40000F91FF90EF90DF90CF90BF90AF900895FB
:100E50008F929F92AF92BF92CF92DF92EF92FF92CA
:100E6000CF93DF93EC016A017B010E94FA084B01EA
:100E70005C010E94FA08681979098A099B096C15B6
:100E80007D058E059F0558F461E070E080E090E0FC
:100E90000E9429096881CE010E94A706EACFDF914E
:100EA000CF91FF90EF90DF90CF90BF90AF909F9049
:100EB0008F900895CF92DF92EF92FF920F931F933E
:100EC000CF93DF93EC014423F1F06115710581F1BB
:100ED0009B0140E050E060E472E48FE090E00E940B
:100EE000090ACB80DC80ED80FE8089019A010C1517
:100EF0001D052E053F0510F4970186010B831C8309
:100F00002D833E8315C06115710571F09B0140E092
:100F100050E060E472E48FE090E00E94090A2B83C5
:100F20003C834D835E8304C01B821C821D821E8213
:100F3000DF91CF911F910F91FF90EF90DF90CF90B5
:100F40000895CF92DF92EF92FF920F931F93CF936A
:100F5000DF93EC016B018A017901121613061CF074
:100F60007A0100E010E0E881F9810480F581E02D4C
:100F7000CE010995C801880F991F800F911F8C0D14
:100F80009D1D9B838A83FE86ED86E881F98100841E
:100F9000F185E02DCE01099541E0BC018FE791E09C
:100FA0000E945A07CE01DF91CF911F910F91FF90C0
:100FB000EF90DF90CF9008958FEF80937F01109294
:100FC0008101109280010895FC012081222321F0EB
:100FD000269F212D09F02F5FFC0120830895FF92A9
:100FE0000F931F93CF93DF9300D000D0CDB7DEB720
:100FF000FC018B014081F1805281842F8F71880F19
:10100000880F880F282F35E5239F212D1124342F99
:101010003074942F907247FD25C031110EC091118C
:1010200006C0822F80958B832A8319823FC08BEA6A
:101030008B832B5A2A83198239C091110DC0382F06
:101040004AEA349F312D11249BEA931B9B8325553B
:101050002A83198280E02AC01B8280E0822F80953B
:101060008A8312C0311112C091110BC01B82282F2C
:101070003AEA239F212D11248BEA821B8A832B5A63
:1010800003C02B831A822095298310C0911106C0BA
:1010900085E5820F8B831A828BEA06C08BEA820F6A
:1010A0008B831A8280E085E5821B89832FEFF216FD
:1010B00001F16F2DCE0103965C830E94E4076F2D32
:1010C000CE0102960E94E4076F2DCE0101960E9488
:1010D000E40711246F2D6095669F612D11248B818B
:1010E000860F8B838A81860F8A838981860F898305
:1010F0005C815F3FC9F0F12C2F2D552321F0559FC6
:10110000212D09F02F5FF22E622FCE0103960E944F
:10111000E4076F2DCE0102960E94E4076F2DCE01E9
:1011200001960E94E40711248B81F80180838A8153
:101130008183898182830F900F900F900F90DF91B0
:10114000CF911F910F91FF900895DC0140FF03C0E4
:1011500001C06D936D934250E0F75040D0F7089571
:101160001F920F920FB60F9211242F933F938F93DC
:101170009F93AF93BF938091870190918801A09135
:101180008901B0918A013091860123E0230F2D3728
:1011900020F40196A11DB11D05C026E8230F02967B
:1011A000A11DB11D20938601809387019093880132
:1011B000A0938901B0938A0180918B0190918C0159
:1011C000A0918D01B0918E010196A11DB11D80935A
:1011D0008B0190938C01A0938D01B0938E01BF91F0
:1011E000AF919F918F913F912F910F900FBE0F90D4
:1011F0001F9018952FB7F89460918701709188011E
:101200008091890190918A012FBF08953FB7F8948A
:1012100080918B0190918C01A0918D01B0918E01F4
:1012200026B5A89B05C02F3F19F00196A11DB11D41
:101230003FBF6627782F892F9A2F620F711D811D5E
:10124000911D42E0660F771F881F991F4A95D1F7BD
:1012500008958F929F92AF92BF92CF92DF92EF92BA
:10126000FF926B017C010E9406094B015C01C114D5
:10127000D104E104F104F1F00E94AE090E940609D4
:10128000681979098A099B09683E734081059105AF
:1012900070F321E0C21AD108E108F10888EE880E47
:1012A00083E0981EA11CB11CC114D104E104F10417
:1012B00029F7DDCFFF90EF90DF90CF90BF90AF90F8
:1012C0009F908F900895789484B5826084BD84B592
:1012D000816084BD85B5826085BD85B5816085BD31
:1012E000EEE6F0E0808181608083E1E8F0E010824A
:1012F000808182608083808181608083E0E8F0E08B
:10130000808181608083E1EBF0E080818460808374
:10131000E0EBF0E0808181608083EAE7F0E08081AB
:10132000846080838081826080838081816080830B
:101330008081806880831092C100089508950E9482
:1013400063090E949E090E947501C0E0D0E00E94DE
:1013500013012097E1F30E940000F9CF0895DB010B
:101360008F939F930E942F0ABF91AF91A29F800DF0
:10137000911DA39F900DB29F900D11240895AA1B5B
:10138000BB1B51E107C0AA1FBB1FA617B70710F070
:10139000A61BB70B881F991F5A95A9F780959095A2
:1013A000BC01CD01089597FB072E16F4009407D0D9
:1013B00077FD09D00E94BF0907FC05D03EF4909547
:1013C00081959F4F0895709561957F4F0895A1E293
:1013D0001A2EAA1BBB1BFD010DC0AA1FBB1FEE1FAF
:1013E000FF1FA217B307E407F50720F0A21BB30BFA
:1013F000E40BF50B661F771F881F991F1A9469F776
:1014000060957095809590959B01AC01BD01CF01D1
:101410000895052E97FB1EF400940E94200A57FDA4
:1014200007D00E94E70907FC03D04EF40C94200A71
:1014300050954095309521953F4F4F4F5F4F089500
:1014400090958095709561957F4F8F4F9F4F089530
:101450000E94400AB7FF0895821B930B08950E94D3
:10146000400AA59F900DB49F900DA49F800D911DE3
:1014700011240895EE0FFF1F0590F491E02D0994BB
:10148000A29FB001B39FC001A39F700D811D1124C5
:10149000911DB29F700D811D1124911D0895F89426
:0214A000FFCF7C
:1014A200020040001E000300010000000000B90518
:0814B200C5056200D1055F00D1
:00000001FF
